:020000040000fa
:080000000402040000000000ee
:020000040000fa
:100400008402040000000000af912000807f2200e1
:100410000001880000000000050007000c00070034
:100420007e1f0200000000000040da000000fe0015
:100430004440a900802120000000e00003003200b9
:1004400000002000a00188004440a8000000060031
:10045000a01b2200010020001600370062004000af
:10046000e0804800910188009001ba0062004000dd
:10047000e0804800910188009002ba0062004000cc
:10048000e08048000002eb006028e10005003a002f
:100490008301e90007003300038009000059eb00e5
:1004a000040037006128e100010032000082eb0007
:1004b00005000700910188001001ba000200e00069
:1004c000e6ff3a00000005009101880080027800f4
:1004d00062004000e08048003559ba008301e9001d
:1004e000080032002559ba008301e90005003200f6
:1004f0000400e000f4ff320015d9ba008301e900de
:10050000f1ff3a0000000600881f7800020478001e
:1005100023000700080040004f0478000000060098
:100520000000fa00881f7800000478003fb99700a7
:10053000ea81570080007800402820002100070051
:10054000800078000000e000020035000040eb0071
:1005500080707c00010078004f0478000080fa0071
:1005600000000600040037001004e000090032001b
:100570000000e8008100e800904178001141780017
:1005800082cf5100f8ff32000080eb0003003900f9
:1005900001003700000005001000200000000600e8
:1005a000000278008001780001003700b15978001e
:1005b00002004200808f5100fcff3a0004007800e6
:1005c000000006006200fa00889fbe008a9fbe00fd
:1005d0000004be00020578008300780060f92f0057
:1005e0000f004000af00070088979f0099979f0079
:1005f0000000eb00a09f9f009a4578000b80fb0055
:100600000000ea00cf04de000904e90050c2b30094
:1006100080cf550001003200090478000800e00096
:100620000b003400080178008a0078001f909700c2
:100630008f9197000300010090979f000000e00059
:10064000930032002f98970008004000a09f9f0061
:100650000905450050c2b30080cf550004003200a8
:100660000b04e000e4ff3a002f9897008900370060
:100670000000eb00809f9f00f0979f00e0979f0095
:10068000d0979f00c0979f00b0979f00c09f9f008a
:1006900009003700a09020000080500000004000ba
:1006a000e18f2000e08078004f98970001007000f3
:1006b000c09f9f000a05e8001a4478008800fb00ec
:1006c000a09020007c000700800078000000e0007f
:1006d000f0ff3a00a0c2b300804f54000e003a0071
:1006e000bf8897000180e900b08f9f0090007800dc
:1006f000b19f9f000100e00005003d000100ea00fd
:10070000b09f9f004f9897000020a000c09f9f00bf
:100710000a05e80010003700b19f9f00090037006c
:10072000bf989700f0ff2700808f50000400320030
:100730006a08b9000000410003004000b09f9f001c
:100740000a05e8001a01fb0003fd2f000300410029
:10075000e90f5000f2ff3600e0c2b3009a4f1000dc
:10076000040032000080eb00909f9f008a04780014
:100770001c0037008a04e800a0c2b300994f1000a3
:1007800007003a00bf8897000180e900b08f9f0002
:1007900010007800909f9f008a84e80011003700c5
:1007a0000000eb00909f9f00090037009f98970082
:1007b000f0ff2700808f5000040032006a08b90063
:1007c0000000410003004000909f9f008904e80062
:1007d0001901fb0003fd2f0003004100e90f500049
:1007e000f2ff3600194478008800fb0020912000b9
:1007f000310007000000e00002003a0000447800e9
:10080000010037008904e800a87f9f0080c6b3007c
:10081000804f540004003a0066405000994f140085
:100820000700320008003700c0c6b300804f5400f4
:1008300005003a00994f140003003a00654040005b
:10084000a07f9f008904e8000905e800c8fb2f008d
:100850000f04440060f92f000f0040008085e8007d
:10086000880178001901fb00800078000b007800f7
:10087000190007000000e00005003a008800780039
:100880000b0078005e0107000000e0005aff3d0009
:100890000080eb004f05be004f04be000080fa0050
:1008a000000006000200fa00f1bf9f000108780076
:1008b0000080fa0000000600040037001004e00089
:1008c00001003a00000005000000e80090cf100091
:1008d000faff3a0000000600889fbe008a1f7800d9
:1008e0000004780001027800824478000305780053
:1008f000e0c6b300804f5100d700320015003c0025
:100900006b405000804f5100240032000a003c0030
:1009100070405000804f510014013200654040008b
:10092000804f51007600320050c2b300804f51001a
:1009300027013a002301370040c6b300804f510021
:100940001b00320065404000804f510020013a00fa
:100950001700370030c7b300804f51000301320049
:1009600007003c0064405000804f5100640032009a
:100970000040e800804f510015013a00ec003700bc
:1009800050c7b300804f51005d003200634040000b
:10099000804f51000e013a00590037009180e90064
:1009a000010a78007800900011f079000e013700fc
:1009b00028619000c0c6b300804f51000a003a0081
:1009c0001400780064015000020a78001200be0092
:1009d0004f88de00cf80de001202be0000037800e8
:1009e000800378001500370010c7b300804f510016
:1009f00002003a0094007800040037009400780068
:100a0000a0c6b300804f510005003a006880500036
:100a1000000a78003002be002003be000700370045
:100a20000180e900000a78001000780000027800d8
:100a3000cfa2de000503780086037800049cbe0088
:100a40000694be00a860900080c6b30080cf50001e
:100a50000e00320020c6b30080cf500005003a00df
:100a60000400fb00cf80de000101780082017800e5
:100a70000a00370040c7b30080cf500003003200a7
:100a80006640400080cf500006003a000400780025
:100a9000cf80de000101780082017800009cbe005a
:100aa0000294be003800be002801be00e00f5000d6
:100ab000e08f5800e00f5900e08f590003003d001f
:100ac00078009000d1c2b3000a00370008109000ef
:100ad0000018a3000300320078009000b1c2b300f8
:100ae000040037000008a300560032007800900090
:100af00001c2b30001707d000000e8005000370023
:100b000028619000c0c6b300804f510007003a0032
:100b10009400780064805000000a78001002be0043
:100b20000003eb00860378001500370010c7b30000
:100b3000804f510002003a00940078000400370012
:100b400094007800a0c6b300804f510005003a0021
:100b500068805000000a78003002be002003be000a
:100b6000070037000180e900000a780010007800d3
:100b70000002780005002000060020000700200089
:100b8000049cbe000694be00a860900080c6b3001e
:100b900080cf50000e00320020c6b30080cf50003e
:100ba00005003a000480fb00010020000200200044
:100bb000030020000a00370040c7b30080cf500078
:100bc000030032006640400080cf500006003a002b
:100bd0000400780001002000020020000300200033
:100be000009cbe000294be00081090000038a300d4
:100bf000140032003800be002801be00e00f500093
:100c0000e08f5800e00f5900e08f59000d003200ce
:100c100080c7b30080cf54000300320080c5b3000a
:100c200080cf540007003a007800900001c3b30061
:100c300001707d008000e80089707d000080e80080
:100c4000700498007800900000004500600498004f
:100c50008940780042003700a8609000c0c6b30009
:100c600080cf5000250032000a003c006440500054
:100c700080cf50002800320000c0e80080cf500034
:100c8000140032006840500080cf500022003a002b
:100c90000a00370040c7b30080cf50001e0032006a
:100ca0006640400080cf50001b0032006940500079
:100cb00080cf500018003a00060037001480e90089
:100cc000000a780010007800485c9000084878001e
:100cd000470037001480e900000a7800100278000d
:100ce00068089000cf80de00010178008201780062
:100cf000009abe000292be003d0037001480e90059
:100d0000000a78001001780068089000cf80de00ab
:100d10000089be00360037001480e900000a780020
:100d200010007800680c9000080878003000370048
:100d30001180e9008008780010007800cf80de0084
:100d40000101780082017800009cbe000294be0080
:100d500078009000000045006004980081c7b3004f
:100d600008007800f0000700210037001480e90037
:100d7000000a7800900178006304980058099000f8
:100d80000200e00003003d00030078009901070025
:100d90000a0037008000eb00030078009c01070088
:100da000800078000000e00003003200680090003e
:100db000008050000100370058089000100c980087
:100dc0000b0037007800900002707d0006003700ad
:100dd00078009000800045000904e00001003a001e
:100de00059c2b300894878000000e80070049800f8
:100df0000000eb004f0578004f04be000000060025
:100e00000400fa00889fbe008a9fbe008c1f7800f5
:100e1000000478000106780070089000f800900047
:100e200001005000880890000100500098089000d0
:100e300001005000a808900001005000b808900080
:100e400001005000c80890008105500000022200f7
:100e5000a0bf9f000003230090bf9f0008109000d8
:100e60000028a30018003a000b00e0001600340030
:100e70008b04780009057800e28f540002003600e8
:100e80002a002000020037000900e0000b003400b7
:100e9000c80190000a017800ec80570058009000cb
:100ea00003000100500498000000e00096003200aa
:100eb000680890000a004000600c98008a84540082
:100ec0004240a900ebff3c00780190000200e000e6
:100ed0000b003400c80190008c007800580090008e
:100ee00003000100500498000000e000860032007a
:100ef00068089000f800900001004000600c980025
:100f0000880c90000900e000150034000905780005
:100f1000e28f5400020036002a0020000200370051
:100f20000900e0000b003400c80190000a017800bd
:100f3000ee80570058009000030001005004980014
:100f40000000e00070003200680890000a004000d5
:100f5000600c98008a8454004240a900ebff3c00da
:100f6000180990000200e0000b003400c801900056
:100f7000e800900058009000030001005004980021
:100f80000000e000600032006808900098089000bf
:100f900001004000600c9800a80c90000900e000df
:100fa0001500340009057800e28f54000200360075
:100fb0002a002000020037000900e0000b00340086
:100fc000c80190000a017800ee8057005800900098
:100fd00003000100500498000000e0004a003200c5
:100fe000680890000a004000600c98008a84540051
:100ff0004240a900ebff3c00380990000200e000ed
:101000000d003400e8009000180890008080400037
:10101000c80190005800900003000100500498009f
:101020000000e0003800320068089000b808900026
:1010300001004000600c9800c80c90000900e0001e
:101040001500340009057800e28f540002003600d4
:101050002a002000020037000900e0000b003400e5
:10106000c80190000a017800ee80570058009000f7
:1010700003000100500498000000e000220032004c
:10108000680890000a004000600c98008a845400b0
:101090004240a900ebff3c00081090000028a3008c
:1010a0001b0032000b00e000190034008b047800b4
:1010b00009057800e28f5400020036002a00200063
:1010c000020037000900e0000b003400c801900066
:1010d0000a017800ec8057005800900003000100de
:1010e000500498000000e0000700320068089000fb
:1010f0000a004000600c98008a8454004240a90015
:1011000003003400eaff37000080eb0001003700e5
:101110000000eb004f0678004f05be004f04be00f4
:101120000080fa00000006006f02b000889fbe0039
:101130008a9fbe008c9fbe008e1f7800000678003c
:10114000d08e200080bf9f0080c5b30080cf5000ac
:101150000700320082002000f2b79f00c38d2000fc
:1011600083bf9f007740400080cf50000a003200cc
:1011700080c7b30080cf500005003200a4002000db
:10118000f4b79f0080c5b30080cf500002003a0042
:1011900000012000f0b79f003c04be002c05be00fb
:1011a00040c6b30080cf50000300320065404000cd
:1011b00080cf50000b003a00e00f5400e08f5c003d
:1011c000e00f5d00e08f5d0006003d006000b800ac
:1011d0006011b80008045000898458000a055900bd
:1011e0008b855900e00f5400e08f5c00e00f5d003c
:1011f000e08f5d0004003a005c0890008d01200043
:101200000000e0000c003200ffb0970001027800ff
:10121000cfa2de0005037800860378000800be0038
:101220000a01be00930407000fba970064407800db
:10123000d0e79f007d0120007fb09700000278007a
:10124000cfa2de0005037800860378000800be0008
:101250000a01be0080040700009ebe000296be0088
:101260000d00e900e1fc2f008f8040000087400066
:101270001a0037007fb1970002027800cfa2de008b
:1012800005037800860378003c00be002c01be00f8
:101290007c0407000205be000004be008d06e900c4
:1012a000ffb1970003027800cfa2de0005037800ab
:1012b000860378000800be000a01be00fa04070099
:1012c0003fb29700000052008fb8970060cf7800bf
:1012d000089ebe000a96be000e07e9003c00be0054
:1012e0002c01be00b0b79f00c1b79f00d2b79f00ce
:1012f000e3b79f00e00f5000e08f5800e00f590067
:10130000e08f5900020034000d00e000d9ff3c00de
:10131000ffb09700e88f500010003a000c109000ca
:101320000038a3000d003200f78f560006003e0083
:10133000e2fc2f000d014100e2c07f0000c3b300ba
:1013400080cf5000050032008d06e90000c3b300d5
:10135000e3fc2f008d81410080f17f007881160031
:10136000120e98006c009000e3fc2f008f8141006a
:101370008d8041008afc07001c0990005c089000e9
:10138000800f510006003d0002005000000e980042
:101390000c1090000040a100001698000f003700cc
:1013a0000000e0000d003d000c1090007400600093
:1013b000f00f500009003a007c089000fc009000fb
:1013c000010050008c089000010050000200500005
:1013d0004240a90001003400000e98004f07780039
:1013e0004f06be004f05be004f04be006f02b100a5
:1013f0000000060080007800010037000000e800cf
:101400001004e000fdff3a0001005000000006005b
:10141000820178000400370090cf100005003200f0
:101420000000e8008301e9000300e000faff3a0051
:101430000000eb0000000600889fbe008a9fbe00ef
:10144000010578000100e0000400350008003c00c0
:101450000000e000200032000500370060001000ae
:10146000e080180002003b0001f02c001a00370059
:101470000004be006011b8006b0920000982cf0093
:10148000020039000882cf000441b00069425200d6
:101490000e00320008003b0082817100610164008f
:1014a0008904d1000884d3008b05e8000442e800d9
:1014b000f9ff3a00050037000804440089844c0015
:1014c0008b05e9000442e900fbff3a009b0107009d
:1014d0000af0a70001f0a0004f05be004f04be00b7
:1014e0000000060003f0a200889fbe008a9fbe0095
:1014f0008c1f7800b7010700be0133006450e10083
:101500004f0032006420e1005200320003826c0080
:1015100007003b000905d0000306d000820f5400ed
:101520000c065d00020039000200320089017800db
:10153000030678008582550004003d000003fd008d
:101540008103fd008502ea008b854200840f720052
:1015500002003b0060001000e08018006011b8003d
:101560000005eb007a28e1000a0039000600780047
:10157000c75ddd00f707b200878075002d003700da
:10158000828171000a017800610560008180d100cc
:101590000080d3008502e900f9ff3b00060440000b
:1015a0008784480002003b0060041400e0841c00b3
:1015b0000988a300070032008a81710082817100ce
:1015c000610164008904d1000884d3008b05e80020
:1015d000170037000978a30013003a000b00e00061
:1015e000130034008b05e9000804440089844c0092
:1015f0000a4474000978a3000d003a000b00e000d3
:10160000070034008b05e9000804440089844c007d
:1016100001003a000b0020000978a300f7ff320018
:101620000001eb0002003700828171000a0178009e
:10163000420107000cf0a70001f0a000760137007e
:101640006420e10002003a00838f6c0076013300d1
:101650000801be000200be006f0137000001be009d
:10166000740107000470a70003f0a1006509b10030
:10167000160032000d0035006828e1000600350034
:10168000f0ff2f00f1ff27000300e00013003b00f4
:101690000100280000000500000040008180480093
:1016a0008502e900fcff3a0008003700f88f42008d
:1016b00002003c008000eb00000005008100d1002a
:1016c0000080d3008502e800fcff3a000300e00040
:1016d00002003b0060001000e080180000000600df
:1016e0000c00fa00889fbe008a9fbe008c9fbe003f
:1016f000380107000206be00840578000200be0023
:10170000020020006001070005003a008b02b300d0
:10171000120020005c01070001003a00f8856d000e
:101720000c01be00c60007000800be009b0032008e
:101730000b08a3009e003a000df0a7000be0a000ec
:1017400009f0a7000bf0a00009f0a1000801be00fd
:10175000bb0007000bf0a6009500320001003c0022
:101760000bd0a0008acf7500b20033006000b80033
:101770006250e10099003900a1003e000b28a3004f
:10178000a2003a000bf8a300060032000b58a30099
:10179000a70032000801be00a90007000800be0033
:1017a000940032000800be005e0107000004be0085
:1017b000050578000bf0a7000b30a6000bf0a10088
:1017c0005b079800324f200053f3230062010700ab
:1017d00005003d000800be00120020006001070067
:1017e0000004be000a05e9004a0798006150b900ec
:1017f00011ff0700008fbe000c01be009b00070018
:1018000096ff0700300798000100e00002003d004d
:1018100060001000e0801800f2ff2700820f5000e7
:10182000e08f580064003e000c00be008bff0700f4
:1018300020079800f2072000820f5000e08f580028
:1018400005003c0012f82f00f3ff2f00820f50001c
:10185000838f580009003d000a00e00003003200b9
:1018600001003c000201ea00020578006000b800b7
:10187000200798003a079800190037003e009000b2
:101880006100b900ecfe0700809fbe000c00be00a6
:101890004109dd004811de007208b100fa000700be
:1018a0000005be001e01be00700007004f01be0013
:1018b0000cff0700809fbe000c00be000a01be00a6
:1018c00008ff07001e01be00680007004f01be00b0
:1018d00005ff07008221270013f3230063000700a0
:1018e0000005be002e0090006100b900d2fe070086
:1018f00001f0a2000c01be00fbfe07000006be00c6
:101900000800be00380107000c01be0057000700a8
:101910000a01be00f4fe0700809fbe004a000700d7
:101920002e0590000af0a7000a05ea00050037001e
:101930000800be000801be004c0007000004be0005
:101940000c00be000801be000a00a7004700070007
:101950000006be000a05d100f5ff3a005e019000c6
:1019600002e0a600030037000001be0036000700b9
:10197000740107000004be004f00be00b301070061
:101980000801be00390007003e019000f400070086
:10199000de0590000bf0a70001f0a2004f06be008c
:1019a0004f05be004f04be000080fa000000060094
:1019b00025000700f9ff3700270007006000b80086
:1019c0000bd0a7000bc0a0000be0a7000bc0a2002b
:1019d0000bc0a70001f82700f0ff37000df8a300a7
:1019e000020032001e000700190007000bf8a300d8
:1019f000eaff32000b30a70001f0a200e7ff37003a
:101a00000df8a300f9ff3a00f7ff37000801be0008
:101a10000b000700e6ff320001003c000df0a200c1
:101a20006000b8000df0a70009000700dbff3700d9
:101a30000b000700f1ff2700f0ff2f00d7ff370052
:101a400001000700c400370001f823000000050072
:101a500001f82700000005002002200001003700e7
:101a6000100220008048880000000600889fbe0009
:101a70008a9fbe008c1f7800560007005d0033006f
:101a800003866c006450e100240032006420e10011
:101a9000270032006150e100220032006120e100a5
:101aa000210032008b854200eb07b1000134b80001
:101ab000003ab8000804420089844a00013ab8009c
:101ac0000030b8008880400009014a00040033005b
:101ad0000000400081804800020149008b05e900b8
:101ae000c909dd00830170000100320013002000ed
:101af000c814de004814dd004709de001200b20001
:101b0000c808de00088470000c00070001f0a10086
:101b10000cf0a70001f0a0003f0037006120e100b9
:101b2000410032000801be000200be00f7ff37008e
:101b30006150e100fcff3a003b00370081002000cb
:101b4000618055000b003d000b00200061fe2f005e
:101b50000100e1001d003400828171006101640018
:101b60008904d1000884d3000000e800faff3a009d
:101b7000710020006100640003007000020060003a
:101b80000900320061044400e0844c000988a5008b
:101b9000050032008b05e8006808e10002003a0009
:101ba0008904d1000884d300f20f20000258e1001c
:101bb00005003d00c75ddd00f907b20089807500b2
:101bc00008007800000006000bf827008b00780062
:101bd000000005000004be00160007000003be0060
:101be0000405be000200be0012000700844f75000d
:101bf000000006000200be006450e100050036004f
:101c00006420e100020036000968a30001003a00e8
:101c10000800be000160a0004f0678004f05be001e
:101c20004f04be0000000600f0ff2f00f1ff270068
:101c3000f9ff3700c70ade00f107b200f50fb20066
:101c400008003200e1cf4200020032000170a00023
:101c500024000500810f7000010032000408050017
:101c600044000500810f700002003a0014000500d6
:101c70008502e9000000400081c04800fcff3b00f5
:101c80000170a00024000500889fbe008a9fbe004e
:101c90000003be00e7ff070085057800828152003f
:101ca000020020006220e10004003a00f307b100c6
:101cb000040035007718e100040035000600be007e
:101cc000140037006000b8000f003700f50f200047
:101cd000faff2f008502d1000a85d3008301e900b5
:101ce000fcff3b008184620000046500890f7400e2
:101cf000f2ff32008582ea000a85ea0081846200f0
:101d0000000465008dff070007f0a70001f0a000a8
:101d10000081eb000200e0004f05be004f04be0052
:101d2000000006000003be00c2ff07006220e100c1
:101d3000020032000600be0005000500e507b10004
:101d4000f107b20004f023008480700007f0a700c0
:101d500001f0a00024000500140020001d01370040
:101d60000003be00b3ff07006220e1000200320062
:101d70000600be000000060085024100e30f2000bf
:101d80000328e10005003c00a3fe2f000328e1002a
:101d900007003d000500200001003700f50f20007e
:101da00020022000804888006000b800080037004a
:101db000130020008381520005003d008100d10006
:101dc0000080d3008301e800fcff3a0005002000fa
:101dd000c72add00f107b2008580700007f0a70078
:101de00001f0a00000000600889fbe008a9fbe0090
:101df0008c9fbe00cbff0700850478000005be0065
:101e00006420e10049003e006220e100030032004e
:101e1000090035000bf8a300440032000bf8a300c2
:101e2000080032001002200080488800f0ff2f00d8
:101e3000f1ff27003d00370001f82f0000002000cf
:101e40003a0037003d000700a6fd07000006be006f
:101e50000a00be00324f200053f32300f8000700b1
:101e6000060034000c00be00340007009dfd070092
:101e70000006be000a00be00020037008904e90027
:101e80000c00be002d000700f8fe07002b00070025
:101e900095fd07000001be000c00be0029000700f0
:101ea0000005be000001be00f0fe07000006be00f7
:101eb000a2f32300430d2c008bfd0700809fbe0082
:101ec0000c00be00d2e32700d3f02b00e7fe070092
:101ed0004f01be001b0007000006be000a01be0045
:101ee000e2fe07000a01be007ffd07000006be00fb
:101ef0006148b90050fd07000005be003208280007
:101f0000e3952b00d9fe07000c01be0076fd07000b
:101f10000006be000a00be000200280013f32300e2
:101f2000d2fe07000c01be006ffd07004f06be0089
:101f30004f05be004f04be000000060003f0230062
:101f400002000500889fbe008a9fbe008c1f78009b
:101f500020ff070027ff330003866c006450e10078
:101f60002e0032006420e100330032006150e100b5
:101f70002f0032006120e1003100320085855500dc
:101f8000eb07b0000900200008042000050037001e
:101f90000804440089844c000a0031000603430011
:101fa00087834b000001530081815b00f8ff330001
:101fb0000203be000800a0000804440089844c000d
:101fc000f6ff3900c639dd008301730001003200dd
:101fd000130020008904d1000884d3000998a300cd
:101fe000050032000800a7000300a0008904d1000a
:101ff0000884d3008b05e8008904d1000884d3004d
:102000000001eb000281d200ccfe070001f0a1002c
:102010000cf0a70001f0a000fffe37006420e100f3
:1020200001ff32000801be000200be00f7ff3700ca
:102030006120e100fcfe32006000b800f3ff3700d1
:102040000000200001f82700f0ff3700889fbe0045
:102050008a9fbe008c9fbe000004be00f5fe0700f4
:102060000800be006420e10048003e005500320038
:1020700072212700132b24007100070047003c0049
:102080000800be00c2ec2800e32c2c0032ff070041
:10209000470035000800be0001f0a100020020004a
:1020a000033823002cff0700430035000800be0062
:1020b000b2a32a0083fb23006cfe0700020020006d
:1020c00003f0230001f0a70003f0a00006fd0700c5
:1020d00062fd07000005be00d7fc070001f0a2006a
:1020e0000006be000200280013f323005ffe070075
:1020f0000801be00fcfc0700809fbe000c00be0073
:1021000032082800e3952b0058fe07004f01be005f
:10211000f5fc07000006be000001be0053fe0700ec
:10212000809fbe004241250083b823004ffe070078
:102130000200200003e82300ebfc07000c01be00b6
:102140004afe07000006be004f00be00f2f92b0059
:10215000c3d4230045fe07000200200003f0230043
:10216000e1fc07000c01be00defc07000001be0020
:102170000c00be0073ff07000200200003f02300e4
:10218000d9fc070061014500f5fe07004f06be00bf
:102190004f05be004f04be000000060001f82700f6
:1021a000000020002202200082488800f7ff37004c
:1021b0006000b800fbff370001f82300000020009a
:1021c000f2ff370009f8a300f0ff32006000b8000a
:1021d000eeff3700889fbe008a9fbe00841f7800f4
:1021e0007cfe07004f00780011003300f0ff2f0045
:1021f000838f6c0006003b00040565000a00a70001
:102200000800370009f0a600100020000800370081
:10221000820f5400838f5c000300390010002000ff
:1022200001003e000000200009f0a7000000ea00c5
:102230004f05be004f04be000000e0000000060095
:10224000f4ff2f00e3ff3700881f780000047800b8
:102250005001be004000be000000420081804a00e4
:1022600002014b0083814b00009cbe000294be0023
:102270000400e1000588e1000690e1000798e10014
:1022800002003100680044001008e8004f047800a4
:1022900000000600f4874700889fbe008a9fbe00aa
:1022a0008c9fbe008e1f78000205be000004be0099
:1022b000d4b79f00e5b79f00f6b79f0087bf9f0088
:1022c0000000eb00c0b79f00b0b79f00a0b79f0011
:1022d00090b79f0080b79f000d042000bfb097000b
:1022e0004fb09700000140000000e00014003d00e6
:1022f0004f08de0000007100c0b79f00ad0007006e
:1023000001003d0012002000b000070001003d0068
:1023100012002000b500070001003d00120020005f
:10232000ba000700be000700feff3a00c200070027
:10233000c80007000f004000c3ff07002700370058
:102340004f08de0000067100ccb79f00990007001f
:1023500001003d00120020009c00070001003d002c
:1023600012002000a100070001003d001200200023
:10237000a6000700aa000700feff3a00ae00070013
:102380000fb297009fb297002fb39700bfb397008b
:10239000b60007000000520081805a0002015b0075
:1023a00083815b0080b79f0091b79f00a2b79f0019
:1023b000b3b79f000007eb00ac0007000020e1006e
:1023c00001a8e10002b0e10003b8e1000100310022
:1023d0001e0020000e005600c0b79f004fb29700ad
:1023e0000400e0000700350010002000010020007c
:1023f0006011b80008047000898470000a0571003b
:102400008b8571008d06e900b4ff3a000400e000fe
:1024100003003d008f0007000f0040008aff070007
:102420004fa897000000e00004003a000fb49700a6
:102430009fb497002fb59700bfb59700970007008e
:102440004f0778004f06be004f05be004f04be0088
:102450004f01b10000000600881f7800180020001e
:10246000881f78008bff07008f87e9004f047800f2
:1024700000000600801feb0086ff07008f87e90041
:1024800000000600889fbe008a9fbe008c1f780057
:102490007b00070005003d002f00070007003d00fe
:1024a0003d0007000006eb00040037003f00070076
:1024b00002003d00300007001c00200077000700ec
:1024c000e5ff07000203be000002be000c00e000b2
:1024d00001003200280007000400be000601be0013
:1024e0004f0678004f05be004f04be0000000600f6
:1024f000889fbe008a9fbe008c1f78006000070086
:1025000003003d001400070006003d0004003700f2
:102510002600070003003d006000b8006011b8000d
:102520001d0007005d000700d2ff07000203be0088
:102530000002be000c00e000010032000e000700a7
:102540000400be000601be004f0678004f05be0025
:102550004f04be00000006006000b8006011b80023
:1025600008045000898458000a0559008b855900d9
:102570001c002000030037006000b8006011b800a4
:1025800005003700e00f5200e08f5a00e00f5b00bb
:10259000e08f5b00000006000402500085825800b6
:1025a0000603590087835900000006000006eb006f
:1025b000f4ff37000180400090b79f000001eb005e
:1025c0008fb097000100e0000000060002007000dc
:1025d00090b79f000180400080b79f000001eb0092
:1025e000ffa897000100e000000006000200700054
:1025f00080b79f0001804000f0af9f000001eb001a
:10260000efa897000100e000000006000200700043
:10261000f0af9f000182400020000700f503050095
:102620008301d1000281d3008180d3000080d300d8
:102630008502e9000000060000027200e4af9f007e
:102640000804440089844c000a054d008b854d0028
:10265000000006003fb29700cfb297005fb397002b
:10266000efb3970000fe2f00000006003fb0970078
:10267000cfb097005fb19700efb197000000060060
:102680000205be000004be00e00f5000e08f5800bd
:10269000e00f5900e08f5900000006000800be005e
:1026a0000a01be0000000600889fbe008a9fbe008f
:1026b0008c1f78000205be000004be000006eb007f
:1026c000e00f5000e08f5800e00f5900e08f5900f4
:1026d00007003d006000b8006011b8000804500019
:1026e000898458000a0559008b8559001c00200078
:1026f000e00f5200e08f5a00e00f5b00e08f5b00bc
:1027000002003d000f0007000c00a2000800be0000
:102710000a01be00120007000203be000002be0054
:102720000c00e00001003200060007000400be00bb
:102730000601be004f0678004f05be004f04be00e4
:10274000000006006000b8006011b80004025000ec
:10275000858258000603590087835900000006004f
:10276000889fbe008a9fbe008c9fbe000404b800f4
:102770000506b8008904460060854e000606b800cc
:102780000a054600e0854e000706b8008b054600a6
:10279000040eb800890446000a854e00e0854d000d
:1027a000050eb8000a0546008b854e00060eb800df
:1027b0008b0546000416b8000a0546008b854e00be
:1027c0000516b8008b054600041eb8008b054600b0
:1027d0000800be000a01be004f06be004f05be0045
:1027e0004f04be00000006000200fa00000f78004f
:1027f0000000eb0010458800030037001045800002
:102800000000e80010458800104580009e0f500031
:10281000faff39000080fa00000006000200fa000a
:10282000004f780033c2bf00624060000004e00047
:10283000fcff3a001e00fb00a01188000080fa0097
:10284000000006000200fa00000f78000000eb0014
:102850001045880007003700104580001e0040002a
:1028600010407800edff0700104580000000e800f0
:1028700010458800104580001e0040001040780080
:102880000004e000f4ff3a000080fa0000000600b7
:102890000000fa00c0002000c011880000002800dd
:1028a0008011880000402000901188000080fa000c
:1028b000000006000000fa00a0fc2f00601988004c
:1028c0000000eb000019880050002000401988002b
:1028d0000000eb00801988002000200020198800eb
:1028e0000000eb001019880021e3a8000080fa0026
:1028f000000006000000fa00d2c2a800d2e2a80040
:102900000080fa00000006000000fa00c002a900e2
:10291000c022a900c082a9000080fa0000000600c1
:102920000000fa000000eb00200888000000eb0027
:102930000008880000fa200010088800510a2000d2
:1029400091407800f0c8b30000c060000044a000cf
:10295000a5e0b7008460a9009460a80005e1a80084
:102960000080fa00000006000000fa00d1ff070016
:10297000c7ff0700dfff0700e3ff0700c0e2a90071
:1029800070022000a010880000002800b01088000d
:1029900097c0a8002000200093ff0700e0ff070079
:1029a0000080fa00000006000400fa00000f780022
:1029b000110798001602a80016c2bf00614060000f
:1029c0000004e000fcff3a001e00780000404000d8
:1029d00012e2b70018c2bf00614060000004e000ce
:1029e000fcff3a0019c2bf000044b2000004e0003e
:1029f000fcff3a0019c2bf001e00900012e2b700af
:102a000018c2bf00614060000004e000fcff3a0013
:102a100019c2bf000044b2000004e000fcff3a000d
:102a200019c2bf001642a80016c2bf006440600071
:102a30000004e000fcff3a000080fa0000000600fd
:102a40000800fa0020079800310798000000eb000a
:102a5000100798000000eb00000f78001602a80095
:102a600016c2bf00614060000004e000fcff3a00b5
:102a70002e009000000040000040e80012e2b70085
:102a800018c2bf00614060000004e000fcff3a0093
:102a900019c2bf000044b2000004e000fcff3a008d
:102aa00019c2bf001662a80016c2bf0068406000cd
:102ab0000004e000fcff3a0010c2bf008080fb0071
:102ac0003e0090000108780016a2a9001682a80016
:102ad00016c2bf00704060000004e000fcff3a0036
:102ae0001662a80016c2bf00684060000004e00043
:102af000fcff3a0010c2bf000080fb0010079800e6
:102b000016a2a9001682a80016c2bf00704060007d
:102b10000004e000fcff3a001662a80016c2bf00e5
:102b2000684060000004e000fcff3a0010c2bf00f3
:102b30000080fb00000f780016a2a9001682a800f2
:102b400016c2bf00704060000004e000fcff3a00c5
:102b50003e0090008080e8001e00900000004000d1
:102b60000000400000004000000040000000400065
:102b70000000400000004000000040001e00700007
:102b8000800878001662a80016c2bf006840600086
:102b90000004e000fcff3a0010c2bf000080fb0010
:102ba0001007980016a2a9001682a80016c2bf003e
:102bb000704060000004e000fcff3a001662a800cc
:102bc00016c2bf00684060000004e000fcff3a004d
:102bd00010c2bf000080fb00000f780016a2a80002
:102be0001682a80016c2bf00704060000004e0001a
:102bf000fcff3a001642a80016c2bf006440600005
:102c00000004e000fcff3a003e009000e4004000b9
:102c10001e00900000004000000040000000400046
:102c200000004000000040000000400000004000a4
:102c3000000040001e007000800878000080fa004c
:102c4000000006000200fa00000f78001e00780065
:102c5000401988002023a80010002000e2fe070091
:102c60002023a90020c3bf00614060000004e000f1
:102c7000fcff320000188000004088000040800007
:102c80000080fa00000006000a00fa001007980011
:102c90002107980032079800430798002e00900003
:102ca000e10f50002e0034001e009000801f7800bd
:102cb0004e009000801f7800e00a2a00801f7800f4
:102cc0004e00900016f60700e68757000000eb0064
:102cd000000f78002e0090000000e9009e0f5000c9
:102ce0000f003a001e0078000000400080007800cd
:102cf0003e0090000080400010007800801f7800a7
:102d00004e009000801f7800700b2a00801f780012
:102d10004e00900002f60700e68757001c003700bf
:102d20001e00780000004000800078003e00900007
:102d30000080400010007800801f78004e00900056
:102d4000801f7800d00b2a00801f78004e00900072
:102d5000f3f50700e68757001e0fe800ddff370098
:102d60003e00900010007800801f78001e00900048
:102d7000801f78004e009000801f7800400c2a00d1
:102d8000801f78004e009000e5f50700e8875700a7
:102d90000080fa0000000600a600fa00308f9800bc
:102da000418f9800528f9800638f9800748f98001d
:102db0000597980016979800279798001000200014
:102dc00089fe0700b0072000000f780010002000e7
:102dd00085fe07003e8890000000e00012003a00e7
:102de0005e8890000000e0000f003a007e889000ae
:102df0000000e0000c003a001e9090000000e0008f
:102e000009003a004eb897000000e00006003a00c2
:102e10002eb897000000e00003003a000eb89700bb
:102e20000000e000bd0032003e8890000000e0009d
:102e30001d003200114680008e0178004e899000fe
:102e4000f00c2a0090ff07005e8890000000e00070
:102e50000f003a007e8890000000e0000c003a006d
:102e60001e9090000000e00009003a004eb8970064
:102e70000000e00006003a002eb897000000e000d5
:102e800003003a000eb897000000e0000600320090
:102e90008e1f7800300d2a00801f78000e00780009
:102ea0009ff50700e48757005e8890000000e0006f
:102eb0001a003200214680008e0178006e89900051
:102ec000700d2a0070ff07007e8890000000e0006f
:102ed0000c003a001e9090000000e00009003a004b
:102ee0004eb897000000e00006003a002eb89700a8
:102ef0000000e00003003a000eb897000000e00078
:102f0000060032008e1f7800300d2a00801f7800e6
:102f10000e00780082f50700e48757007e88900055
:102f20000000e00017003200314680008e0178007a
:102f30000e919000b00d2a0053ff07001e909000e4
:102f40000000e00009003a004eb897000000e000e1
:102f500006003a002eb897000000e00003003a0097
:102f60000eb897000000e000060032008e1f7800c7
:102f7000300d2a00801f78000e00780068f50700e9
:102f8000e48757001e9090000000e000140032001b
:102f9000514680008e0178002e919000f00d2a009d
:102fa00039ff07004eb897000000e00006003a0025
:102fb0002eb897000000e00003003a000eb897001a
:102fc0000000e000060032008e1f7800300d2a005d
:102fd000801f78000e00780051f50700e487570045
:102fe0004eb897000000e0001100320061468000fa
:102ff0008e0178003eb99700200e2a0022ff0700bc
:103000002eb897000000e00003003a000eb89700c9
:103010000000e000060032008e1f7800300d2a000c
:10302000801f78000e0078003df50700e487570008
:103030002eb897000000e0000e00320041468000ec
:103040008e0178001eb99700500e2a000eff07006f
:103050000eb897000000e000060032008e1f7800d6
:10306000300d2a00801f78000e0078002cf5070034
:10307000e48757000eb897000000e0001b00320004
:103080008e0178007eb1970011002000800e2a008a
:10309000fdfe07008e1f7800300d2a00801f78008b
:1030a0000e0078001ef50700e48757008e017800b7
:1030b0006eb1970011002000f00e2a00f2fe07000a
:1030c0008e1f7800300d2a00801f78000e007800d7
:1030d00013f50700e48757008e0178005eb1970072
:1030e00011002000700f2a00e7fe070010002000ea
:1030f000bdfd07008e1f7800f00f2a00801f7800aa
:103100000e00780006f50700e48757001000200045
:10311000b5fd07000e007800cafd07000080fa0028
:10312000000006000400fa00000f78001107980064
:103130000000eb00b04588000000eb00c0458800af
:103140000000eb00d04588000000eb00e04588005f
:103150000000eb00f04588000000eb00004688000e
:103160001e0090000000e00002003a001e007800ff
:10317000504588001e009000e40f500002003a0005
:103180001e007800604588001e009000e50f50008a
:1031900002003a001e007800704588000080fa00a6
:1031a000000006000200fa00000f78001e00e00098
:1031b00002003a000080eb005045880040002000eb
:1031c0009e0f100002003a000080eb00604588006e
:1031d000500020009e0f100002003a000080eb001b
:1031e000704588000080fa00000006000400fa0024
:1031f000000f7800110798001e0090000000e0000a
:1032000004003a000000eb00704688001e007800c1
:10321000104688001e009000e40f500004003a00a1
:103220001e007800204688000000eb0080468800e1
:103230001e009000e50f500004003a001e007800c8
:10324000304688000000eb00904688000080fa00bd
:10325000000006000400fa00000f78001107980033
:103260000000eb00b04588000000eb00c04588007e
:103270000000eb00d04588000000eb00e04588002e
:103280000000eb00f04588000000eb0000468800dd
:103290001e009000e10f500002003a001e0078006e
:1032a000804588001e009000e60f500002003a00a2
:1032b0001e007800904588001e009000e70f500027
:1032c00002003a001e007800a04588000080fa0045
:1032d000000006000200fa00000f78001000200035
:1032e0009e0f100002003a000080eb00804588002d
:1032f000600020009e0f100002003a000080eb00ea
:1033000090458800700020009e0f100002003a00d7
:103310000080eb00a04588000080fa000000060055
:103320000400fa00000f7800110798001e009000ba
:10333000e10f500004003a001e007800404688006b
:103340000000eb00a04688001e009000e60f500031
:1033500004003a001e007800504688000000eb0090
:10336000b04688001e009000e70f500004003a00ad
:103370001e007800604688000000eb00c046880010
:103380000080fa00000006000400fa00000f780038
:1033900011079800100020009e0f10000d003a0049
:1033a0001e0090006140600000404000004040006e
:1033b000004040000040400000404000004040000d
:1033c00080404000c0c2bf000074a10001407000f6
:1033d000c0e2b7000080fa00000006000200fa0018
:1033e000889fbe00204580000000e00016003a00e3
:1033f000d4c2bf000080fb004700de000080fb005d
:10340000cf80de000cf807000001be0036f8070090
:103410000004be00d4c2bf000080fb004600de00f6
:10342000614060000080fb00cf80de0002f80700f2
:103430000001be000800be002bf8070087f8070057
:10344000000f7800020037000080eb00000f7800ca
:103450001e0078004f04be000080fa000000060045
:103460000200fa00000f78001e00e00001003a00a0
:10347000c202a800100020009e0f100001003a00b8
:10348000c222a800400020009e0f100001003a0058
:10349000c282a8000080fa00000006000200fa00c4
:1034a000000f78001e00e00001003a00c202a900ef
:1034b000100020009e0f100001003a00c222a90057
:1034c000400020009e0f100001003a00c282a900b7
:1034d0000080fa00000006000600fa00000f7800e5
:1034e000110798001e007800900078001e009000e0
:1034f000808f500006003a009e0078000000eb002c
:103500008008780010002000200798000200370093
:103510000000eb00200798002e0090000080fa00c9
:10352000000006000a00fa00889fbe00000f780025
:103530001107980022079800330798004407980065
:103540002e009000900078003e009000808f500088
:1035500010003a004e0090009004780009007800b6
:1035600000004000800078001e00900000844000b1
:103570001e007800b3fd0700000c78008900e80009
:103580004e00900001087800ae0090000000eb00b3
:10359000800878004f04be000080fa00000006009a
:1035a0000c00fa00000f780011079800220798001d
:1035b0003307980044079800550798003e00900094
:1035c000900078004e009000808f500010003a006c
:1035d0005e0090001000780000004000800078003d
:1035e0001e00900000804000ae00900001087800ae
:1035f0005e009000100078008000e8005e009000ff
:1036000001087800be0090000000eb008008780000
:103610000080fa000000060000a0fe003600f8005e
:10362000849fbe00869fbe003400f80004c0b30033
:10363000a40188000000fa00b04580000000e80006
:10364000b0458800b04580000000e00002003d0069
:103650000000eb00b0458800c04580000000e80095
:10366000c0458800c04580000000e00002003d0029
:103670000000eb00c0458800d04580000000e80055
:10368000d0458800d04580000000e00002003d00e9
:103690000000eb00d0458800f04580000000e80005
:1036a000f0458800f04580000000e00002003d0089
:1036b0000000eb00f0458800004680000000e800b4
:1036c00000468800004680000000e00002003d0047
:1036d0000000eb0000468800c0c2bf0001c8b30074
:1036e000014060000004e00008003200e045800076
:1036f0000000e800e0458800e04580000000e000b0
:1037000002003d000000eb00e045880033ff0700a9
:103710008000780030458000808f500002003a0021
:1037200040102a0047fc07008460a9000080fa00ce
:103730003400f9004f03be004f02be003600f9000e
:103740000080fe0000400600801f78000000fa00a4
:10375000100020004045880087c0a9000080fa00c2
:103760004f007800004006000000fa0032c2bf009f
:10377000614060000004e000fcff3200b0118000f6
:103780000000fb000080fa00000006000c00fa00b8
:10379000889fbe008a9fbe0040079800510798008e
:1037a0000000eb00300798000000eb0020079800b5
:1037b0000000eb00100798005e0090000000e90098
:1037c000200798000000eb00100798002500370044
:1037d0001e009000800078004e00900000804000a5
:1037e000104078008000fb0000fd2f00008f40009b
:1037f0003e009000cf80de000ff707000005be00fe
:103800001e007800cf80de000bf707000004be002a
:103810002e009000cf80de0007f707000001be00f9
:103820000000200001122400adf707000001be00d7
:103830000800be008df807000001be000a00be00af
:1038400029f7070085f70700300798002e00900041
:103850000000e900200798001e0090000000e8002a
:10386000100798002e0090000000e000d8ff3d00f7
:103870003e0090004f05be004f04be000080fa00dd
:10388000000006000200fa00881f7800b6ff07005b
:1038900002e8b70010002000000f78001e04780036
:1038a000b1ff070080407800208020000000440025
:1038b000014878009e0078002080200000804000b1
:1038c00090407800d0c7b30080cf50000200320093
:1038d0001e0fe800f1ff37009e80e80020802000e6
:1038e000808040000040eb00804878004f04780062
:1038f0000080fa00000006005e00fa00881f7800d1
:103900000000eb00500798000000eb004007980013
:103910000000eb00300798000000eb002007980043
:103920000000eb00100798000000eb00000f78008b
:10393000de00900020802000008040009040780051
:1039400020c2b30080cf500006003a002e00900045
:103950000000e800200798000000eb0040079800f6
:1039600058013700de0090002080200000804000d9
:1039700090407800b0c5b30080cf500007003a00f7
:1039800010002000100798000000eb00300798009e
:103990000000eb00000f78004a013700de009000c5
:1039a000208020000080400090407800d0c5b30007
:1039b00080cf5000ca003a000000eb0010079800ca
:1039c0006c00470071122a00e6f207000000e000d8
:1039d0000b003a00400320000e0040001000900051
:1039e000e10f500006003a00400320000e004000a6
:1039f00090007800803e2000cafd070031013700aa
:103a00006c00470071122a00d6f207000000e000a7
:103a10000a003a00400320000e0040001000900011
:103a20000000e00005003a00400320000e004000c6
:103a300010007800dbfd0700220137006c00470012
:103a400081132a00c7f207000000e00008003a00d6
:103a5000400320000e00400090007800400320004a
:103a60000e00400010009000aefd07001501370069
:103a70006c00470071142a00baf207000000e00051
:103a800008003a00400320000e004000900078003b
:103a9000400320000e00400010009000d3fd0700fe
:103aa000080137006c00470051152a00adf20700ed
:103ab0000000e00008003a00400320000e00400033
:103ac00090009000400320000e004000100078009d
:103ad0002dfe0700fb0037006c00470021162a006e
:103ae000a0f207000000e0000b003a0040032000b5
:103af0000e00400010009000e10f500006003a0058
:103b0000400320000e00400090007800803e20001e
:103b1000d0fd0700eb0037006c00470021162a009b
:103b200090f207000000e0000a003a004003200085
:103b30000e004000100090000000e00005003a0078
:103b4000400320000e00400010007800e1fd070057
:103b5000dc0037006c00470041172a0081f20700a3
:103b60000000e00008003a00400320000e00400082
:103b700090007800400320000e00400010009000ec
:103b8000b4fd0700cf0037006c00470001182a0081
:103b900074f207000000e00008003a004003200033
:103ba0000e00400090007800400320000e0040000e
:103bb00010009000dafd0700c20037006c004700db
:103bc000b1182a0067f207000000e00005003a0083
:103bd000400320000e0040001000780020458800bf
:103be000b80037006c00470031192a005df2070069
:103bf0000000e00005003a00400320000e004000f5
:103c00001000780030458800ae0037006c00470097
:103c1000e1192a0053f207000000e0000a003a0010
:103c2000400320000e00400010009000e10f500003
:103c300005003a00400320000e004000100078000c
:103c400007fe07009f0037006c004700e1192a00bb
:103c500044f207000000e0000a003a0040032000a0
:103c60000e004000100090000000e00005003a0047
:103c7000400320000e0040001000780007fe0700ff
:103c8000900037006c004700211a2a0035f2070027
:103c90000000e0000a003a00c0c2bf0001c8b30043
:103ca000014060000004e00005003a00c2e2a80004
:103cb000803e2000ccfa0700c2e2a9008100370054
:103cc0006c004700511b2a0026f207000000e000ac
:103cd0007c003a0010002000d046880079003700b0
:103ce000de0090002080200000804000904078009e
:103cf00000c2b30080cf500072003200de0090009e
:103d0000208020000080400090407800a0c3b300d5
:103d100080cf50006b003200de0090002080200039
:103d20000080400090407800c0c2b30080cf5000b7
:103d300004003a001e0090000000e00001003a007c
:103d400060003700ae009000100028008080600006
:103d5000612f98006e2890000000e0000a003d00ee
:103d6000ee2890008100e900612f9800e0ff2f000d
:103d7000ee28900080807000612f98006e289000df
:103d80000000e800602f98006e289000e10f5000be
:103d900011003a004e019000de00900020802000cb
:103da00000804000904078006c0047000000410017
:103db000014878004e0090000000e800400798009d
:103dc000ce0090006c004700808040000040eb0077
:103dd000804878003b0037001e009000e10f500043
:103de00038003a00de009000208020000080400073
:103df00090407800c0c2b30080cf50000d00320068
:103e00003e019000de0090002080200000804000f5
:103e100090407800000220000e00400000004100a9
:103e2000014878003e0090000000e800300798004c
:103e30000e0037001e047800000220000e00400033
:103e4000be00900051fe07000001780041032000f1
:103e50008e80400008004400010040000208780005
:103e60001e0fe8000000eb00300798005e00900095
:103e70008000e80020802000008040009040780012
:103e8000d0c5b30080cf50000e003a001e04780069
:103e9000000220000e004000be0090003bfe070024
:103ea00000017800410320008e804000080044009b
:103eb00001004000020878001e0fe8000000eb003f
:103ec00030079800de009000208020000080400035
:103ed00090407800d0c7b30080cf5000040032007b
:103ee0005e0090000000e8005007980090fe370048
:103ef0004f0478000080fa00000006001200fa006b
:103f00000000eb00500798000000eb00400798000d
:103f10000000eb00300798000000eb00200798003d
:103f20000000eb00100798000000eb00000f780085
:103f30008dfa070040458000e10f500004003a0070
:103f400050fe07006cfe07000000eb0040458800b3
:103f500050458000e48c200080017800628b2000b6
:103f6000618620000000eb006efd070060458000c8
:103f7000048d200080017800828b200001872000c2
:103f80004000200067fd070070458000248d200060
:103f900080017800a28b2000a18720005000200023
:103fa00060fd070091458000d4c2bf000080fb0087
:103fb0004600de00614060000081fb00658d20004e
:103fc00001027800e38b2000e188200060002000df
:103fd00073fd0700a1458000d4c2bf000080fb0034
:103fe0004700de000081fb00858d20000102780083
:103ff000038c2000818920007000200068fd0700ec
:1040000081458000c2c2bf000080fb004700de0087
:104010000081fb00458d200001027800c38b200049
:1040200041882000100020005dfd0700114680003f
:10403000e08c200028fd07005007980021468000f2
:10404000008d200024fd07004007980031468000c5
:10405000208d200020fd0700300798005146800089
:10406000608d20001cfd070020079800614680003d
:10407000808d200018fd0700100798004146800041
:10408000408d200014fd0700000f7800d04680000e
:104090000000e00006003200c10a20008004200079
:1040a00041fa0700ec0047008004200064fa070092
:1040b0006c004700e40040006c0047000080e8000e
:1040c000d2468000811f7800801f78006c00470076
:1040d000801f7800821f780040882000801f7800b1
:1040e0001e007800801f780080892000801f7800e3
:1040f0001e009000801f7800e78820002e039000ab
:10410000a58720003e029000038720004e0190000a
:10411000618620005e0090001ffb0700f0875700bb
:104120000000eb00d04688000000eb00500798002c
:104130000000eb00400798000000eb0030079800fb
:104140000000eb00200798000000eb00100798002b
:0c4150000000eb00000f780076ff370045
:020000040000fa
:020000040002f8
:04aff800befa00009d
:020000040000fa
:020000040002f8
:04affc007fbf000013
:020000040000fa
:100008003222000032220000322200003222000098
:100018003222000032220000322200003222000088
:100028003222000032220000322200000c1b0000a5
:100038003222000032220000322200003222000068
:100048003222000032220000322200003222000058
:100058003222000032220000322200003222000048
:100068003222000032220000322200003222000038
:100078003222000032220000322200003222000028
:100088003222000032220000322200003222000018
:100098003222000032220000a41b0000322200009d
:1000a80032220000322200003222000032220000f8
:1000b80032220000322200003222000032220000e8
:1000c80032220000322200003222000032220000d8
:1000d80032220000322200003222000032220000c8
:1000e80032220000322200003222000032220000b8
:1000f80032220000322200003222000032220000a8
:100108003222000032220000322200003222000097
:100118003222000032220000322200003222000087
:100128003222000032220000322200003222000077
:100138003222000032220000322200003222000067
:100148003222000032220000322200003222000057
:100158003222000032220000322200003222000047
:100168003222000032220000322200003222000037
:100178003222000032220000322200003222000027
:100188003222000032220000322200003222000017
:100198003222000032220000322200003222000007
:1001a80032220000322200003222000032220000f7
:1001b80032220000322200003222000032220000e7
:1001c80032220000322200003222000032220000d7
:1001d80032220000322200003222000032220000c7
:1001e80032220000322200003222000032220000b7
:0801f800322200003222000057
:020000040000fa
:100208003222000032220000322200003222000096
:100218003222000032220000322200003222000086
:100228003222000032220000322200000c1b0000a3
:100238003222000032220000322200003222000066
:100248003222000032220000322200003222000056
:100258003222000032220000322200003222000046
:100268003222000032220000322200003222000036
:100278003222000032220000322200003222000026
:100288003222000032220000322200003222000016
:100298003222000032220000a41b0000322200009b
:1002a80032220000322200003222000032220000f6
:1002b80032220000322200003222000032220000e6
:1002c80032220000322200003222000032220000d6
:1002d80032220000322200003222000032220000c6
:1002e80032220000322200003222000032220000b6
:1002f80032220000322200003222000032220000a6
:100308003222000032220000322200003222000095
:100318003222000032220000322200003222000085
:100328003222000032220000322200003222000075
:100338003222000032220000322200003222000065
:100348003222000032220000322200003222000055
:100358003222000032220000322200003222000045
:100368003222000032220000322200003222000035
:100378003222000032220000322200003222000025
:100388003222000032220000322200003222000015
:100398003222000032220000322200003222000005
:1003a80032220000322200003222000032220000f5
:1003b80032220000322200003222000032220000e5
:1003c80032220000322200003222000032220000d5
:1003d80032220000322200003222000032220000c5
:1003e80032220000322200003222000032220000b5
:0803f800322200003222000055
:020000040000fa
:10415c002573000022250000732200003a5b00004a
:10416c000025000073250000645d000000250000a0
:10417c0073250000642c0000200000002573000053
:10418c0022250000732200003a200000256900005f
:10419c00004100004e30000000250000732c000090
:1041ac00004100004e340000004100004e3500007c
:1041bc0000440000360000004437000000420000bc
:1041cc003700000053740000617400007573000028
:1041dc0000730000656e0000736f00007231000008
:1041ec0000730000656e0000736f000072320000f7
:1041fc0000250000737d00000a000000416c0000e7
:10420c006572000074610000202d00002044000045
:10421c006574000065630000616f0000206e000093
:10422c006f200000436100006e6100006c200000f4
:10423c005669000072740000756100006c2000006b
:10424c00006100006e6100006c6f000067410000af
:10425c006d6f0000737400007261000067650000f0
:10426c006d0000006672000065710000416d000079
:10427c006f7300007472000061670000656d0000d0
:10428c00006e0000756d0000416d00006f73000042
:10429c007472000061670000656d00000042000050
:1042ac00696400006972000065630000696f0000ba
:1042bc006e6100006c00000044690000676900003a
:1042cc00746100006c4100006d6f0000737400009d
:1042dc0072610000676500006d0000004469000019
:1042ec0067690000746100006c4600007265000094
:1042fc0071000000446900006769000074610000ef
:10430c006c4e0000756d00000076000069720000b4
:10431c0074750000616c0000006100006c650000a9
:10432c007274000045760000656e00007400000099
:10433c004c650000640000004269000064690000e4
:10434c0072650000636900006f6e0000616c000014
:10435c0041630000746900007665000000490000ac
:08436c003243000000000000d4
:020000040000fa
:10437400a20800003a000000020000000000010052
:10438400000000000000ff00ffffff00ffffff0030
:10439400ffffff00ffff000000000000000000001e
:1043a4000000000000000100000100000100010005
:1043b40000010000010000000000000000000000f7
:1043c40000000000000000000000000000080000e1
:1043d400a20000000000000010090000020000001c
:1043e40000000000fe0800001200000002000000af
:1043f400010002000004000008001000000000009a
:10440400202b2d00233000001209000008000000ba
:1044140002000000686a6c00747a4c00000000001e
:10442400dc080000220000000200000030313200ed
:10443400333435003637380039616200636465000f
:1044440066003000313233003435360037383900f5
:1044540041424300444546000000000000000000c3
:020000040000fa
:044464000000fe0056
:00000001FF
